:100000000C9462000C948A000C948A000C948A0070
:100010000C948A000C948A000C948A000C948A0038
:100020000C948A000C948A000C948A000C948A0028
:100030000C948A000C948A000C948A000C948A0018
:100040000C9473040C948A000C94E3040C94BD0487
:100050000C948A000C948A000C948A000C948A00F8
:100060000C948A000C948A000000000024002700F1
:100070002A0000000000250028002B0000000000DE
:1000800023002600290004040404040404040202DA
:100090000202020203030303030301020408102007
:1000A0004080010204081020010204081020000012
:1000B0000008000201000003040700000000000027
:1000C0000000150511241FBECFEFD8E0DEBFCDBF65
:1000D00011E0A0E0B1E0E0EDF6E102C005900D9284
:1000E000AC3CB107D9F725E0ACECB1E001C01D9202
:1000F000A83AB207E1F710E0C2E6D0E004C02197C9
:10010000FE010E94C508C136D107C9F70E949D05AE
:100110000C94660B0C940000833081F028F481303D
:1001200099F08230A9F008958730A9F08830C9F09D
:100130008430B1F4809180008F7D03C08091800075
:100140008F7780938000089584B58F7784BD08955C
:1001500084B58F7DFBCF8091B0008F778093B00006
:1001600008958091B0008F7DF9CFCF93DF93282F32
:1001700030E0F901E255FF4F8491F901E656FF4F57
:10018000D491F901EA57FF4FC491CC23A1F081111A
:100190000E948C00EC2FF0E0EE0FFF1FE458FF4FA1
:1001A000A591B491EC91ED2381E090E009F480E019
:1001B000DF91CF91089580E090E0FACF1F93CF9325
:1001C000DF93282F30E0F901E255FF4F8491F901C8
:1001D000E656FF4FD491F901EA57FF4FC491CC2363
:1001E000A9F0162F81110E948C00EC2FF0E0EE0F89
:1001F000FF1FEE58FF4FA591B4918FB7F894EC9183
:10020000111108C0D095DE23DC938FBFDF91CF9111
:100210001F910895DE2BF8CFCF93DF93C8E9D5E087
:1002200061E088810E94DE0060E089810E94DE003A
:1002300060E08881DF91CF910C94DE00CF93DF9353
:10024000C8E9D5E060E089810E94DE0061E0888134
:100250000E94DE0061E08981DF91CF910C94DE0085
:10026000CF93DF9390E0FC01E656FF4F24918A572D
:100270009F4FFC0184918823C9F090E0880F991F5B
:10028000FC01E859FF4FA591B491FC01EE58FF4FD6
:10029000C591D49161110DC09FB7F8948C912095B0
:1002A00082238C938881282328839FBFDF91CF915D
:1002B0000895623051F49FB7F8943C91822F809555
:1002C00083238C93E8812E2BEFCF8FB7F894EC919A
:1002D0002E2B2C938FBFEACF0F931F93CF93DF93D7
:1002E000C82FD8E06C2F6170809199050E94DE00C4
:1002F00061E0809198050E94DE0060E080919805A1
:100300000E94DE00C695D15069F760E080919905A2
:100310000E943001809199050E94B5008C0161E036
:10032000809198050E94DE0060E0809198050E940F
:10033000DE0061E0809199050E943001012B89F671
:10034000DF91CF911F910F910895CF93DF939091FB
:100350009A05992389F0843078F4D62FC82F0E940B
:100360000C018C2F806C0E946C018D2F0E946C01FF
:10037000DF91CF910C941E01DF91CF9108953FB78B
:10038000F8948091F3049091F404A091F504B09155
:10039000F60426B5A89B05C02F3F19F00196A11DB4
:1003A000B11D3FBFBA2FA92F982F8827BC01CD01BF
:1003B000620F711D811D911D42E0660F771F881F1E
:1003C000991F4A95D1F708958F929F92AF92BF924D
:1003D000CF92DF92EF92FF924B015C010E94BF012E
:1003E0006B017C010E94BF016C197D098E099F0978
:1003F000683E734081059105A8F321E0821A9108B7
:10040000A108B10888EEC80E83E0D81EE11CF11CDB
:1004100081149104A104B10429F7FF90EF90DF90BB
:10042000CF90BF90AF909F908F900895AF92BF9262
:10043000CF92DF92EF92FF920F931F93CF93DF93B0
:100440006C017B018B01040F151FEB015E01AE18DF
:10045000BF08C017D10759F06991D601ED91FC9101
:100460000190F081E02DC6010995892B79F7C5012E
:10047000DF91CF911F910F91FF90EF90DF90CF9080
:10048000BF90AF900895FC01538D448D252F30E02F
:10049000842F90E0821B930B541710F0CF96089591
:1004A00001970895FC01918D828D981761F0A28DBE
:1004B000AE0FBF2FB11D5D968C91928D9F5F9F7384
:1004C000928F90E008958FEF9FEF0895FC01918D3A
:1004D000828D981731F0828DE80FF11D858D90E0A7
:1004E00008958FEF9FEF0895FC01918D228D892F44
:1004F00090E0805C9F4F821B91098F73992708952C
:100500008BEF94E00E94740221E0892B09F420E033
:10051000822F089580E090E0892B29F00E948002CC
:1005200081110C9400000895FC01A48DA80FB92F2F
:10053000B11DA35ABF4F2C91848D90E001968F730B
:100540009927848FA689B7892C93A089B1898C912A
:10055000837080648C93938D848D981306C0028879
:10056000F389E02D80818F7D80830895EF92FF9243
:100570000F931F93CF93DF93EC0181E0888F9B8DC6
:100580008C8D98131AC0E889F989808185FF15C080
:100590009FB7F894EE89FF896083E889F9898081A3
:1005A0008370806480839FBF81E090E0DF91CF9172
:1005B0001F910F91FF90EF900895F62E0B8D10E094
:1005C0000F5F1F4F0F731127E02E8C8D8E110CC003
:1005D0000FB607FCFACFE889F989808185FFF5CF4E
:1005E000CE010E949402F1CFEB8DEC0FFD2FF11D97
:1005F000E35AFF4FF0829FB7F8940B8FEA89FB898B
:1006000080818062CFCFCF93DF93EC01888D8823E8
:10061000B9F0AA89BB89E889F9898C9185FD03C065
:10062000808186FD0DC00FB607FCF7CF8C9185FF4A
:10063000F2CF808185FFEDCFCE010E949402E9CFF9
:10064000DF91CF910895EF92FF921F93CF93DF93A5
:1006500061E08091A1050E94DE006AEF70E080E019
:1006600090E00E94E4012FB7F8948091F7049091F4
:10067000F804A091F904B091FA042FBF4091A305AA
:100680005091A4056091A5057091A6058417950762
:10069000A607B70740F41092A3051092A405109284
:1006A000A5051092A6052091A705211118C040911B
:1006B000A3055091A4056091A5057091A605841B22
:1006C000950BA60BB70B803D9740A105B10538F4FB
:1006D00081E0DF91CF911F91FF90EF9008951092EC
:1006E000A7052FB7F8948091F7049091F804A09192
:1006F000F904B091FA042FBF8093A3059093A40549
:10070000A093A505B093A60510929F0510929E0593
:1007100010929D0510929C0510929B0561E08091BE
:10072000A1050E94300160E08091A1050E94DE00D9
:1007300064E170E080E090E00E94E401F89461E000
:100740008091A1050E94DE008BE990E00197F1F70E
:1007500060E08091A1050E94300110E081E0C0E0DE
:10076000D0E0E82EF12C8091A1050E94B5008E15F5
:100770009F0519F4DF5FDF3FB1F78091A1050E946B
:10078000B500DF3FC1F0C43098F0C0FD11C0E12FCB
:10079000E695E695E695F0E0E556FA4F9081990FDB
:1007A00090832091A2052D1710F4916090831F5F14
:1007B000CF5FC535A9F678941832B8F040919F05FF
:1007C00020919B0580919C05280F3327331F809132
:1007D0009D05280F311D80919E05820F932F911D3D
:1007E00099274817190609F473CF80E072CF8091DA
:1007F000F0049091F104892B59F40E942303609135
:100800009D0581110BC060E070E080EC9FE70895CA
:100810000E9423038823B9F360919B0570E090E068
:1008200080E00E94E5090895FC0101900020E9F7AD
:100830003197AF01481B590BBC018BEF94E00C942E
:1008400016028F929F92AF92BF920F931F93CF93F6
:10085000DF93CDB7DEB7A1970FB6F894DEBF0FBE1A
:10086000CDBF19A2423008F44AE08E010F5D1F4F40
:10087000842E912CB12CA12CA50194010E948F08EB
:10088000E62FB901CA01EA30F4F4E05DD801EE9335
:100890008D01232B242B252B79F790E080E01097F6
:1008A00019F0CD010E941404A1960FB6F894DEBF92
:1008B0000FBECDBFDF91CF911F910F91BF90AF9031
:1008C0009F908F900895E95CE1CFCF93DF930E94D2
:1008D0001404EC0182E791E00E9414048C0F9D1F28
:1008E000DF91CF9108951F920F920FB60F921124AE
:1008F0002F933F938F939F93AF93BF938091F70470
:100900009091F804A091F904B091FA043091F204A6
:1009100023E0230F2D3758F50196A11DB11D20931B
:10092000F2048093F7049093F804A093F904B09331
:10093000FA048091F3049091F404A091F504B0912D
:10094000F6040196A11DB11D8093F3049093F40465
:10095000A093F504B093F604BF91AF919F918F914E
:100960003F912F910F900FBE0F901F90189526E882
:10097000230F0296A11DB11DD2CF1F920F920FB669
:100980000F9211242F933F934F935F936F937F9315
:100990008F939F93AF93BF93EF93FF938BEF94E06D
:1009A0000E949402FF91EF91BF91AF919F918F911F
:1009B0007F916F915F914F913F912F910F900FBE5B
:1009C0000F901F9018951F920F920FB60F9211243F
:1009D0002F938F939F93EF93FF93E0910B05F091EB
:1009E0000C058081E0911105F091120582FD1BC07C
:1009F0009081809114058F5F8F7320911505821768
:100A000041F0E0911405F0E0E550FB4F958F8093A5
:100A10001405FF91EF919F918F912F910F900FBE31
:100A20000F901F9018958081F4CF1092FE041092C1
:100A3000FD0488EE93E0A0E0B0E08093FF04909383
:100A40000005A0930105B093020584E691E0909320
:100A5000FC048093FB0485EC90E090930805809360
:100A6000070584EC90E090930A058093090580ECDB
:100A700090E090930C0580930B0581EC90E09093AF
:100A80000E0580930D0582EC90E090931005809305
:100A90000F0586EC90E0909312058093110510925B
:100AA00014051092150510921605109217058AE08C
:100AB000809398058BE08093990581E080939A0557
:100AC00061E08AE00E94300161E08BE00E94300129
:100AD00061E08AE00E94DE0061E08BE00E94DE00BF
:100AE0000E940C0184E40E946C010E941E0180910E
:100AF0009A05882339F00E940C018BE80E946C0152
:100B00000E941E018CE08093A10586E08093A205DF
:100B100081E08093A70560E08CE00E94300161E0F5
:100B20008091A1050E94DE001092A3051092A405F9
:100B30001092A5051092A6050895789484B5826058
:100B400084BD84B5816084BD85B5826085BD85B571
:100B5000816085BD80916E00816080936E001092EF
:100B6000810080918100826080938100809181006A
:100B700081608093810080918000816080938000FB
:100B80008091B10084608093B1008091B000816059
:100B90008093B00080917A00846080937A00809185
:100BA0007A00826080937A0080917A0081608093DD
:100BB0007A0080917A00806880937A001092C10058
:100BC000E0910B05F0910C0582E08083E091070530
:100BD000F09108051082E0910905F0910A058FEC6B
:100BE000808310921305E0910F05F091100586E0C7
:100BF0008083E0910D05F0910E05808180618083F6
:100C0000E0910D05F0910E05808188608083E09170
:100C10000D05F0910E05808180688083E0910D05BF
:100C2000F0910E0580818F7D808362E088E00E94D4
:100C3000300162E089E00E9430016AE0462E512CCA
:100C40000E94F7032091F0043091F104232B09F066
:100C50006AC020915C0330915D03F901EE0FFF1F24
:100C6000EE0FFF1FE453FE4F6083718382839383F3
:100C7000C9010196853691050CF050C090935D0333
:100C800080935C0388E00E94B500682E89E00E9492
:100C9000B500782E611013C080910101882379F08E
:100CA0008091F0049091F104019709F05AC01092DC
:100CB000F1041092F0048AE791E00E94650471103B
:100CC0009BC080910001882309F496C00091F00434
:100CD0001091F1040115110509F44EC0C091EE0404
:100CE000D091EF049EE5E92E93E0F92E10E000E0AC
:100CF000812C912C54010C171D070CF05AC0F701E0
:100D000021913191419151917F01C501B4010E941E
:100D1000CC084B015C010F5F1F4FEDCF10925D03BC
:100D200010925C03AFCF2091EE043091EF04F901F3
:100D3000EE0FFF1FEE0FFF1FE25AFC4F608371831F
:100D400082839383C9010196853691052CF4909393
:100D5000EF048093EE0496CF1092EF041092EE040D
:100D600091CF85E991E00E94650481E090E0909345
:100D7000F1048093F004A3CFC0915C03D0915D0394
:100D80008CECE82E81E0F82E812C912C54010C176C
:100D90001D077CF4F70121913191419151917F011F
:100DA000C501B4010E94CC084B015C010F5F1F4FCD
:100DB000EECFBE01DD0F880B990B0E94E7099B0166
:100DC000AC01C501B4010E943D094B015C0186EBF9
:100DD00091E00E946504A5019401C501B4010E943F
:100DE000610B882309F445C08FEB91E00E94140445
:100DF00082E791E00E941404609201017092000168
:100E00000E94F7034B015C0120E030E046EC52EC1D
:100E10000E94380987FD0BC020E030EC49E754E41C
:100E2000C501B4010E94EF0A18160CF0BCC0C5E75A
:100E3000D1E010E0E991EE2309F4ADC0E05260E0AA
:100E4000EE3520F4F0E0EE5FFE4F6081812F0E94CE
:100E5000A5011F5F143071F7E0E0F0E0EF2B09F41B
:100E6000EFCE0E948002882309F4EACE0E9400009F
:100E7000E7CE75016401E894F7F82FEF3FEF4FE7F5
:100E80005FE7C701B6010E94610B81110DC02FEF12
:100E90003FEF4FE75FE7C701B6010E943809181618
:100EA0001CF483EC91E0A2CF2FEF3FEF4FE75FE41C
:100EB000C501B4010E94EF0A18161CF487EC91E0FA
:100EC00095CF2FEF3FEF4FE75FECC501B4010E94D4
:100ED000380987FDF3CF20E030E0A901C501B40156
:100EE0000E94380987FF09C06DE28BEF94E00E94F1
:100EF000B602B7FAB094B7F8B0942AE037ED43EAF7
:100F00005BE3C501B4010E94CC086B017C010E9427
:100F1000B6094B015C010E94E5099B01AC01C701C8
:100F2000B6010E94CB086B017C014AE0C501B40107
:100F30000E9421046EE28BEF94E00E94B60220E052
:100F400030E040E251E4C701B6010E94F40A6B01AF
:100F50007C010E94B6094B01B12CA12C4AE0C501CD
:100F6000B4010E942104C501B4010E94E5099B015E
:100F7000AC01C701B6010E94CB0820E030E040E29E
:100F800051E40E94F40A0E94B60990E080E04AE031
:100F90000E9421042DCF60E0812F0E94A5011F5FD8
:100FA0001430C9F759CF20E030E0A901C501B401E0
:100FB0000E94380910E000E087FF08C060E480E08C
:100FC0000E94A501E894B7F801E010E0C501B40162
:100FD0000E94220A0E94AF096B019B016A307105D1
:100FE00004F5E0E1E60F60E0EE3520F4F0E0EE5FBE
:100FF000FE4F60811801FFEF2F1A3F0A6068802FB3
:101000000E94A501C101C1E0D0E02AE02C9F80012F
:101010002D9F100D112483309105ACF50196E80148
:10102000F5CFC4E6D0E0C901BE010E947B08672B62
:1010300021F13801860113011C161D061CF7C80199
:10104000BE010E947B08E62F8C01CE01B2010E94F6
:101050007B08CB01EB01E05F60E0EE3520F4F0E0CF
:10106000EE5FFE4F6081892B09F46068862D0E9437
:10107000A5018FEF681A780ADECFCE01B2010E9477
:101080007B08EB01D0CFB601DD0C880B990B0E94D9
:10109000E7099B01AC01C501B4010E94CB086B01BB
:1010A0007C01B801110F880B990B0E94E7099B0185
:1010B000AC01C701B6010E94F40A0E94AF098B017E
:1010C000C801BE010E947B08E62F8C01CE01B2014F
:1010D0000E947B087B01EB01E05F60E0EE3520F4CD
:1010E000F0E0EE5FFE4F6081822D0E94A501239407
:1010F000EF2831F7B1CE97FB072E16F4009407D0F6
:1011000077FD09D00E94B10807FC05D03EF4909508
:1011100081959F4F0895709561957F4F0895A1E245
:101120001A2EAA1BBB1BFD010DC0AA1FBB1FEE1F61
:10113000FF1FA217B307E407F50720F0A21BB30BAC
:10114000E40BF50B661F771F881F991F1A9469F728
:1011500060957095809590959B01AC01BD01CF0184
:101160000895AA1BBB1B51E107C0AA1FBB1FA617EE
:10117000B70710F0A61BB70B881F991F5A95A9F740
:1011800080959095BC01CD010895EE0FFF1F05904D
:10119000F491E02D09945058BB27AA270E94E30838
:1011A0000C949D0A0E948F0A38F00E94960A20F043
:1011B00039F49F3F19F426F40C948C0A0EF4E09550
:1011C000E7FB0C945D0AE92F0E94AE0A58F3BA17A8
:1011D000620773078407950720F079F4A6F50C944D
:1011E000E80A0EF4E0950B2EBA2FA02D0B01B901E1
:1011F00090010C01CA01A0011124FF27591B99F08D
:10120000593F50F4503E68F11A16F040A22F232F98
:10121000342F4427585FF3CF469537952795A795E8
:10122000F0405395C9F77EF41F16BA0B620B730B8F
:10123000840BBAF09150A1F0FF0FBB1F661F771F00
:10124000881FC2F70EC0BA0F621F731F841F48F4B5
:10125000879577956795B795F7959E3F08F0B0CF3E
:101260009395880F08F09927EE0F97958795089525
:101270000E94390A08F481E008950E9451090C94F3
:101280009D0A0E94960A58F00E948F0A40F029F4A5
:101290005F3F29F00C945D0A51110C94E90A0C94FB
:1012A0008C0A0E94AE0A68F39923B1F3552391F397
:1012B000951B550BBB27AA2762177307840738F0C5
:1012C0009F5F5F4F220F331F441FAA1FA9F335D022
:1012D0000E2E3AF0E0E832D091505040E695001CD6
:1012E000CAF72BD0FE2F29D0660F771F881FBB1F90
:1012F000261737074807AB07B0E809F0BB0B802D6E
:10130000BF01FF2793585F4F3AF09E3F510578F099
:101310000C945D0A0C94E90A5F3FE4F3983ED4F321
:10132000869577956795B795F7959F5FC9F7880F6D
:10133000911D9695879597F90895E1E0660F771FBF
:10134000881FBB1F621773078407BA0720F0621B50
:10135000730B840BBA0BEE1F88F7E09508950E947B
:10136000B6096894B1110C94E90A08950E94B60A6E
:1013700088F09F5798F0B92F9927B751B0F0E1F056
:10138000660F771F881F991F1AF0BA95C9F714C006
:10139000B13091F00E94E80AB1E008950C94E80A97
:1013A000672F782F8827B85F39F0B93FCCF386953F
:1013B00077956795B395D9F73EF49095809570959C
:1013C00061957F4F8F4F9F4F0895E89409C097FB19
:1013D0003EF490958095709561957F4F8F4F9F4F0C
:1013E0009923A9F0F92F96E9BB279395F695879550
:1013F00077956795B795F111F8CFFAF4BB0F11F413
:1014000060FF1BC06F5F7F4F8F4F9F4F16C08823B9
:1014100011F096E911C0772321F09EE8872F762FEF
:1014200005C0662371F096E8862F70E060E02AF030
:101430009A95660F771F881FDAF7880F969587951C
:1014400097F908950E94D00A90F09F3748F49111BF
:1014500016F00C94E90A60E070E080E89FEB0895D4
:1014600026F41B16611D711D811D0C94630A0C94DA
:101470007E0A990F0008550FAA0BE0E8FEEF16163A
:101480001706E807F907C0F012161306E407F50778
:1014900098F0621B730B840B950B39F40A2661F0EC
:1014A000232B242B252B21F408950A2609F4A1408F
:1014B000A6958FEF811D811D089597F99F6780E89C
:1014C00070E060E00895882371F4772321F098504C
:1014D000872B762F07C0662311F499270DC09051F2
:1014E000862B70E060E02AF09A95660F771F881FC0
:1014F000DAF7880F9695879597F908959F3F31F011
:10150000915020F4879577956795B795880F911D31
:101510009695879597F908959FEF80EC089500249C
:101520000A941616170618060906089500240A9448
:1015300012161306140605060895092E0394000CCE
:1015400011F4882352F0BB0F40F4BF2B11F460FF5D
:1015500004C06F5F7F4F8F4F9F4F089557FD905886
:10156000440F551F59F05F3F71F04795880F97FB67
:10157000991F61F09F3F79F0879508951216130621
:101580001406551FF2CF4695F1DF08C01616170650
:101590001806991FF1CF8695710561050894089585
:1015A0000E94B60AA0F0BEE7B91788F4BB279F389F
:1015B00060F41616B11D672F782F8827985FF7CF34
:1015C000869577956795B11D93959639C8F30895DB
:1015D000E894BB2766277727CB0197F908950E94E7
:1015E000390A08F48FEF08950E94070B0C949D0AA6
:1015F0000E948F0A38F00E94960A20F0952311F07D
:101600000C945D0A0C948C0A11240C94E90A0E9433
:10161000AE0A70F3959FC1F3950F50E0551F629F7E
:10162000F001729FBB27F00DB11D639FAA27F00D3B
:10163000B11DAA1F649F6627B00DA11D661F829F62
:101640002227B00DA11D621F739FB00DA11D621F47
:10165000839FA00D611D221F749F3327A00D611D64
:10166000231F849F600D211D822F762F6A2F112446
:101670009F5750409AF0F1F088234AF0EE0FFF1F79
:10168000BB1F661F771F881F91505040A9F79E3FD0
:10169000510580F00C945D0A0C94E90A5F3FE4F375
:1016A000983ED4F3869577956795B795F795E79526
:1016B0009F5FC1F7FE2B880F911D9695879597F92F
:1016C00008950E94390A880B990B0895F894FFCF6A
:1016D00001010000220000000000390F000000405E
:1016E00000523F065B4F666D7D077F6F000000482C
:1016F0000000007700390079713D76060E003C004D
:10170000373F7300776D003E0000006E0039640FB4
:101710000008005F7C585E7B716F74040C00300021
:10172000545C7367506D781C0000006E0039000F28
:1017300000000000B60216024302030374025202C4
:1017400066020D0A0045727220004E75206D6565B7
:1017500074206469652064652074656D70657261CC
:1017600074757572004E75206D65657420646965C9
:10177000206465206C7563687420766F6368746993
:10178000676865696400417661726167653A006EF9
:0C179000616E00696E66006F76660000F6
:00000001FF
